{
  "contractName": "CoShoeToken",
  "abi": [
    {
      "constant": true,
      "inputs": [],
      "name": "name",
      "outputs": [
        {
          "name": "",
          "type": "string"
        }
      ],
      "payable": false,
      "stateMutability": "view",
      "type": "function"
    },
    {
      "constant": true,
      "inputs": [],
      "name": "totalSupply",
      "outputs": [
        {
          "name": "",
          "type": "uint256"
        }
      ],
      "payable": false,
      "stateMutability": "view",
      "type": "function"
    },
    {
      "constant": true,
      "inputs": [],
      "name": "symbol",
      "outputs": [
        {
          "name": "",
          "type": "string"
        }
      ],
      "payable": false,
      "stateMutability": "view",
      "type": "function"
    },
    {
      "inputs": [
        {
          "name": "_initialSupply",
          "type": "uint256"
        },
        {
          "name": "_shoesSold",
          "type": "uint256"
        }
      ],
      "payable": false,
      "stateMutability": "nonpayable",
      "type": "constructor"
    },
    {
      "anonymous": false,
      "inputs": [
        {
          "indexed": true,
          "name": "_buyer",
          "type": "address"
        },
        {
          "indexed": false,
          "name": "_value",
          "type": "uint256"
        }
      ],
      "name": "Purchase",
      "type": "event"
    },
    {
      "constant": false,
      "inputs": [
        {
          "name": "_name",
          "type": "string"
        },
        {
          "name": "_imgurl",
          "type": "string"
        }
      ],
      "name": "purchase",
      "outputs": [
        {
          "name": "",
          "type": "uint256"
        }
      ],
      "payable": true,
      "stateMutability": "payable",
      "type": "function"
    },
    {
      "constant": true,
      "inputs": [],
      "name": "getPrice",
      "outputs": [
        {
          "name": "_tokenPrice",
          "type": "uint256"
        }
      ],
      "payable": false,
      "stateMutability": "view",
      "type": "function"
    },
    {
      "constant": false,
      "inputs": [
        {
          "name": "_newPrice",
          "type": "uint256"
        }
      ],
      "name": "setPrice",
      "outputs": [
        {
          "name": "",
          "type": "uint256"
        }
      ],
      "payable": false,
      "stateMutability": "nonpayable",
      "type": "function"
    },
    {
      "constant": true,
      "inputs": [],
      "name": "tokenCount",
      "outputs": [
        {
          "name": "counts",
          "type": "uint256"
        }
      ],
      "payable": false,
      "stateMutability": "view",
      "type": "function"
    },
    {
      "constant": true,
      "inputs": [],
      "name": "checkPurchases",
      "outputs": [
        {
          "name": "",
          "type": "bool[]"
        }
      ],
      "payable": false,
      "stateMutability": "view",
      "type": "function"
    }
  ],
  "bytecode": "0x60806040526040518060400160405280600981526020017f53616368546f6b656e000000000000000000000000000000000000000000000081525060059080519060200190620000519291906200025c565b506040518060400160405280600381526020017f5843480000000000000000000000000000000000000000000000000000000000815250600690805190602001906200009f9291906200025c565b50348015620000ad57600080fd5b5060405160408062000eba83398101806040526040811015620000cf57600080fd5b810190808051906020019092919080519060200190929190505050816004819055506706f05b59d3b20000600181905550806002819055506000600190505b60045481116200025357600760405180608001604052806040518060200160405280600081525081526020013373ffffffffffffffffffffffffffffffffffffffff16815260200160405180602001604052806000815250815260200160001515815250908060018154018082558091505090600182039060005260206000209060040201600090919290919091506000820151816000019080519060200190620001bb929190620002e3565b5060208201518160010160006101000a81548173ffffffffffffffffffffffffffffffffffffffff021916908373ffffffffffffffffffffffffffffffffffffffff160217905550604082015181600201908051906020019062000221929190620002e3565b5060608201518160030160006101000a81548160ff02191690831515021790555050505080806001019150506200010e565b50505062000392565b828054600181600116156101000203166002900490600052602060002090601f016020900481019282601f106200029f57805160ff1916838001178555620002d0565b82800160010185558215620002d0579182015b82811115620002cf578251825591602001919060010190620002b2565b5b509050620002df91906200036a565b5090565b828054600181600116156101000203166002900490600052602060002090601f016020900481019282601f106200032657805160ff191683800117855562000357565b8280016001018555821562000357579182015b828111156200035657825182559160200191906001019062000339565b5b5090506200036691906200036a565b5090565b6200038f91905b808211156200038b57600081600090555060010162000371565b5090565b90565b610b1880620003a26000396000f3fe60806040526004361061007b5760003560e01c806391b7f5ed1161004e57806391b7f5ed1461030d57806395d89b411461035c57806398d5fdca146103ec5780639f181b5e146104175761007b565b806306fdde031461008057806318160ddd14610110578063558a2b8b1461013b5780638346881e146101a7575b600080fd5b34801561008c57600080fd5b50610095610442565b6040518080602001828103825283818151815260200191508051906020019080838360005b838110156100d55780820151818401526020810190506100ba565b50505050905090810190601f1680156101025780820380516001836020036101000a031916815260200191505b509250505060405180910390f35b34801561011c57600080fd5b506101256104e0565b6040518082815260200191505060405180910390f35b34801561014757600080fd5b506101506104e6565b6040518080602001828103825283818151815260200191508051906020019060200280838360005b83811015610193578082015181840152602081019050610178565b505050509050019250505060405180910390f35b6102f7600480360360408110156101bd57600080fd5b81019080803590602001906401000000008111156101da57600080fd5b8201836020820111156101ec57600080fd5b8035906020019184600183028401116401000000008311171561020e57600080fd5b91908080601f016020809104026020016040519081016040528093929190818152602001838380828437600081840152601f19601f8201169050808301925050505050505091929192908035906020019064010000000081111561027157600080fd5b82018360208201111561028357600080fd5b803590602001918460018302840111640100000000831117156102a557600080fd5b91908080601f016020809104026020016040519081016040528093929190818152602001838380828437600081840152601f19601f8201169050808301925050505050505091929192905050506105a4565b6040518082815260200191505060405180910390f35b34801561031957600080fd5b506103466004803603602081101561033057600080fd5b8101908080359060200190929190505050610857565b6040518082815260200191505060405180910390f35b34801561036857600080fd5b506103716108be565b6040518080602001828103825283818151815260200191508051906020019080838360005b838110156103b1578082015181840152602081019050610396565b50505050905090810190601f1680156103de5780820380516001836020036101000a031916815260200191505b509250505060405180910390f35b3480156103f857600080fd5b5061040161095c565b6040518082815260200191505060405180910390f35b34801561042357600080fd5b5061042c610966565b6040518082815260200191505060405180910390f35b60058054600181600116156101000203166002900480601f0160208091040260200160405190810160405280929190818152602001828054600181600116156101000203166002900480156104d85780601f106104ad576101008083540402835291602001916104d8565b820191906000526020600020905b8154815290600101906020018083116104bb57829003601f168201915b505050505081565b60045481565b60608060008090505b60078054905081101561059c573373ffffffffffffffffffffffffffffffffffffffff166007828154811061052057fe5b906000526020600020906004020160010160009054906101000a900473ffffffffffffffffffffffffffffffffffffffff1673ffffffffffffffffffffffffffffffffffffffff16141561058f57600182828151811061057c57fe5b6020026020010190151590811515815250505b80806001019150506104ef565b508091505090565b600060078054905060025410610605576040517f08c379a0000000000000000000000000000000000000000000000000000000008152600401808060200182810382526050815260200180610a9d6050913960600191505060405180910390fd5b600154341461065f576040517f08c379a000000000000000000000000000000000000000000000000000000000815260040180806020018281038252605e815260200180610a3f605e913960600191505060405180910390fd5b60006001600254019050600015156007828154811061067a57fe5b906000526020600020906004020160030160009054906101000a900460ff161515146106f1576040517f08c379a0000000000000000000000000000000000000000000000000000000008152600401808060200182810382526026815260200180610a196026913960400191505060405180910390fd5b33600782815481106106ff57fe5b906000526020600020906004020160010160006101000a81548173ffffffffffffffffffffffffffffffffffffffff021916908373ffffffffffffffffffffffffffffffffffffffff160217905550836007828154811061075c57fe5b90600052602060002090600402016000019080519060200190610780929190610973565b50826007828154811061078f57fe5b906000526020600020906004020160020190805190602001906107b3929190610973565b506001600782815481106107c357fe5b906000526020600020906004020160030160006101000a81548160ff0219169083151502179055506002600081548092919060010191905055503373ffffffffffffffffffffffffffffffffffffffff167f2499a5330ab0979cc612135e7883ebc3cd5c9f7a8508f042540c34723348f632346040518082815260200191505060405180910390a260025491505092915050565b60008060009054906101000a900473ffffffffffffffffffffffffffffffffffffffff1673ffffffffffffffffffffffffffffffffffffffff163373ffffffffffffffffffffffffffffffffffffffff16146108b257600080fd5b81600181905550919050565b60068054600181600116156101000203166002900480601f0160208091040260200160405190810160405280929190818152602001828054600181600116156101000203166002900480156109545780601f1061092957610100808354040283529160200191610954565b820191906000526020600020905b81548152906001019060200180831161093757829003601f168201915b505050505081565b6000600154905090565b6000600780549050905090565b828054600181600116156101000203166002900490600052602060002090601f016020900481019282601f106109b457805160ff19168380011785556109e2565b828001600101855582156109e2579182015b828111156109e15782518255916020019190600101906109c6565b5b5090506109ef91906109f3565b5090565b610a1591905b80821115610a115760008160009055506001016109f9565b5090565b9056fe5468697320746f6b656e2068617320616c7265616479206265656e207075726368617365642e5468652076616c7565206f662074686520707572636861736520646f6573206e6f7420657175616c207468652070726963652e20506c6561736520737065636966792074686520636f72726563742070726963652028302e3520455448294e6f206d6f72652072656d61696e696e6720746f6b656e732e20506c6561736520737065636966792061206e756d626572206c657373207468616e207468652072656d61696e696e6720616d6f756e74a165627a7a723058208eae124771053f42653de89337d5027cf2a8c08e620fe6517a3ff4e0f84eaa740029",
  "source": "pragma solidity^0.5.0;\n\ncontract CoShoeToken {\n    address admin;\n\n    // variable initialisation\n    uint256 private tokenPrice;\n    uint256 shoesSold;\n    uint256 count;\n    uint256 public totalSupply;\n\n    string public name = \"SachToken\";\n    string public symbol = \"XCH\";\n\n    // creates the representational stuct of shoe (the token)\n    struct Shoe {\n        string name; //name of owner of shoe\n        address payable owner; //address of the owner of the shoe token\n        string image; //image url\n        bool sold;\n    }\n\n    // array to hold the shoes\n    Shoe[]  shoeArray;\n\n    // event declarations\n    event Purchase(\n      address indexed _buyer,\n      uint256 _value\n    );\n\n    // create tokens and initialize price\n    constructor(uint256 _initialSupply, uint256 _shoesSold) public {\n        // set constructor arguments\n        totalSupply = _initialSupply;\n        tokenPrice = 5*10**17; // 0.5 ETH converted to wei\n        shoesSold = _shoesSold;\n\n        for (uint i = 1; i <= totalSupply; i++) {\n        shoeArray.push(Shoe(\"\",msg.sender,\"\",false));\n        }\n    }\n\n    //function for purchasing shoe tokens\n    function purchase(string memory _name, string memory _imgurl) public payable returns(uint){\n\n        // validation checks\n        //require that the number of shoe tokens to be purchased are less than the number of shoe tokens minted (check there are still shoes available)\n        require(shoesSold < shoeArray.length, \"No more remaining tokens. Please specify a number less than the remaining amount\");\n        // require that the value of the transactions is equivalent to the value of the shoes to be purchased (check that exactly ETH is being provided)\n        require(msg.value == tokenPrice, \"The value of the purchase does not equal the price. Please specify the correct price (0.5 ETH)\");\n\n        //sell the next shoe token\n        uint256 i = shoesSold + 1;\n\n        //ensure that the token has not already been purchased\n        require(shoeArray[i].sold == false,'This token has already been purchased.');\n\n        // update the values of the next shoe\n        // set the owner of the token to the caller of the function\n        shoeArray[i].owner = msg.sender;\n        // register the token to the owners identifer\n        shoeArray[i].name = _name;\n        // set the token image to the supplied image url\n        shoeArray[i].image = _imgurl;\n        // register the token as sold\n        shoeArray[i].sold = true;\n        // increment the number of tokens that have been sold\n        shoesSold++;\n\n        // emit the purchase event\n        emit Purchase(msg.sender, msg.value);\n\n        // finally return the number of shoes that have been sold\n        return shoesSold;\n    }\n\n    // getter functions\n    function getPrice() public view returns(uint _tokenPrice) {\n        return tokenPrice;\n    }\n\n    // setter functions\n    function setPrice(uint256 _newPrice) public returns(uint256) {\n        require(msg.sender == admin);\n        tokenPrice = _newPrice;\n    }\n\n\n    // test functions\n    function tokenCount() public view returns(uint counts) {\n        return shoeArray.length;\n    }\n    //function to return an array of bools of an array of all the purchases that are true\n    function checkPurchases() external view returns (bool[] memory){\n        bool[] memory checkPurchase;\n        for (uint256 i = 0; i < shoeArray.length; i++){\n            if (shoeArray[i].owner == msg.sender){\n                checkPurchase[i] = true;\n            }\n        }\n        return checkPurchase;\n    }\n\n}\n",
  "sourcePath": "C:/Users/Kuziwa Sachikonye/Documents/code projects/FTC-Q2.1-Exam - Copy/contracts/CoShoeToken.sol",
  "compiler": {
    "name": "solc",
    "version": "0.5.8+commit.23d335f2.Emscripten.clang"
  },
  "schemaVersion": "3.0.11",
  "updatedAt": "2019-08-05T10:17:32.554Z",
  "devdoc": {
    "methods": {}
  },
  "userdoc": {
    "methods": {}
  }
}