{
  "contractName": "CoShoe",
  "abi": [
    {
      "constant": true,
      "inputs": [
        {
          "name": "",
          "type": "uint256"
        }
      ],
      "name": "shoes",
      "outputs": [
        {
          "name": "owner",
          "type": "address"
        },
        {
          "name": "name",
          "type": "string"
        },
        {
          "name": "image",
          "type": "string"
        },
        {
          "name": "sold",
          "type": "bool"
        }
      ],
      "payable": false,
      "stateMutability": "view",
      "type": "function"
    },
    {
      "inputs": [
        {
          "name": "_initialSupply",
          "type": "uint256"
        },
        {
          "name": "_shoesSold",
          "type": "uint256"
        }
      ],
      "payable": false,
      "stateMutability": "nonpayable",
      "type": "constructor"
    },
    {
      "anonymous": false,
      "inputs": [
        {
          "indexed": true,
          "name": "_buyer",
          "type": "address"
        },
        {
          "indexed": false,
          "name": "_value",
          "type": "uint256"
        }
      ],
      "name": "Purchase",
      "type": "event"
    },
    {
      "constant": false,
      "inputs": [
        {
          "name": "_name",
          "type": "string"
        },
        {
          "name": "_image",
          "type": "string"
        }
      ],
      "name": "purchase",
      "outputs": [
        {
          "name": "",
          "type": "uint256"
        }
      ],
      "payable": true,
      "stateMutability": "payable",
      "type": "function"
    },
    {
      "constant": true,
      "inputs": [],
      "name": "getNumberofTokens",
      "outputs": [
        {
          "name": "counts",
          "type": "uint256"
        }
      ],
      "payable": false,
      "stateMutability": "view",
      "type": "function"
    },
    {
      "constant": true,
      "inputs": [],
      "name": "checkPurchases",
      "outputs": [
        {
          "name": "",
          "type": "bool[]"
        }
      ],
      "payable": false,
      "stateMutability": "view",
      "type": "function"
    }
  ],
  "bytecode": "0x608060405234801561001057600080fd5b50604051604080610cc58339810180604052604081101561003057600080fd5b810190808051906020019092919080519060200190929190505050816003819055506706f05b59d3b20000600081905550806001819055506000600190505b60035481116101ae57600460405180608001604052803373ffffffffffffffffffffffffffffffffffffffff168152602001604051806020016040528060008152508152602001604051806020016040528060008152508152602001600015158152509080600181540180825580915050906001820390600052602060002090600402016000909192909190915060008201518160000160006101000a81548173ffffffffffffffffffffffffffffffffffffffff021916908373ffffffffffffffffffffffffffffffffffffffff16021790555060208201518160010190805190602001906101609291906101b6565b50604082015181600201908051906020019061017d9291906101b6565b5060608201518160030160006101000a81548160ff021916908315150217905550505050808060010191505061006f565b50505061025b565b828054600181600116156101000203166002900490600052602060002090601f016020900481019282601f106101f757805160ff1916838001178555610225565b82800160010185558215610225579182015b82811115610224578251825591602001919060010190610209565b5b5090506102329190610236565b5090565b61025891905b8082111561025457600081600090555060010161023c565b5090565b90565b610a5b8061026a6000396000f3fe60806040526004361061003f5760003560e01c80634fb7bb1314610044578063558a2b8b1461006f578063607473cf146100db5780638346881e14610239575b600080fd5b34801561005057600080fd5b5061005961039f565b6040518082815260200191505060405180910390f35b34801561007b57600080fd5b506100846103ac565b6040518080602001828103825283818151815260200191508051906020019060200280838360005b838110156100c75780820151818401526020810190506100ac565b505050509050019250505060405180910390f35b3480156100e757600080fd5b50610114600480360360208110156100fe57600080fd5b810190808035906020019092919050505061046a565b604051808573ffffffffffffffffffffffffffffffffffffffff1673ffffffffffffffffffffffffffffffffffffffff168152602001806020018060200184151515158152602001838103835286818151815260200191508051906020019080838360005b83811015610194578082015181840152602081019050610179565b50505050905090810190601f1680156101c15780820380516001836020036101000a031916815260200191505b50838103825285818151815260200191508051906020019080838360005b838110156101fa5780820151818401526020810190506101df565b50505050905090810190601f1680156102275780820380516001836020036101000a031916815260200191505b50965050505050505060405180910390f35b6103896004803603604081101561024f57600080fd5b810190808035906020019064010000000081111561026c57600080fd5b82018360208201111561027e57600080fd5b803590602001918460018302840111640100000000831117156102a057600080fd5b91908080601f016020809104026020016040519081016040528093929190818152602001838380828437600081840152601f19601f8201169050808301925050505050505091929192908035906020019064010000000081111561030357600080fd5b82018360208201111561031557600080fd5b8035906020019184600183028401116401000000008311171561033757600080fd5b91908080601f016020809104026020016040519081016040528093929190818152602001838380828437600081840152601f19601f820116905080830192505050505050509192919290505050610604565b6040518082815260200191505060405180910390f35b6000600480549050905090565b60608060008090505b600480549050811015610462573373ffffffffffffffffffffffffffffffffffffffff16600482815481106103e657fe5b906000526020600020906004020160000160009054906101000a900473ffffffffffffffffffffffffffffffffffffffff1673ffffffffffffffffffffffffffffffffffffffff16141561045557600182828151811061044257fe5b6020026020010190151590811515815250505b80806001019150506103b5565b508091505090565b6004818154811061047757fe5b90600052602060002090600402016000915090508060000160009054906101000a900473ffffffffffffffffffffffffffffffffffffffff1690806001018054600181600116156101000203166002900480601f0160208091040260200160405190810160405280929190818152602001828054600181600116156101000203166002900480156105495780601f1061051e57610100808354040283529160200191610549565b820191906000526020600020905b81548152906001019060200180831161052c57829003601f168201915b505050505090806002018054600181600116156101000203166002900480601f0160208091040260200160405190810160405280929190818152602001828054600181600116156101000203166002900480156105e75780601f106105bc576101008083540402835291602001916105e7565b820191906000526020600020905b8154815290600101906020018083116105ca57829003601f168201915b5050505050908060030160009054906101000a900460ff16905084565b600060048054905060015410610665576040517f08c379a00000000000000000000000000000000000000000000000000000000081526004018080602001828103825260508152602001806109e06050913960600191505060405180910390fd5b60005434146106bf576040517f08c379a000000000000000000000000000000000000000000000000000000000815260040180806020018281038252605e815260200180610982605e913960600191505060405180910390fd5b60006001805401905060001515600482815481106106d957fe5b906000526020600020906004020160030160009054906101000a900460ff16151514610750576040517f08c379a000000000000000000000000000000000000000000000000000000000815260040180806020018281038252602681526020018061095c6026913960400191505060405180910390fd5b336004828154811061075e57fe5b906000526020600020906004020160000160006101000a81548173ffffffffffffffffffffffffffffffffffffffff021916908373ffffffffffffffffffffffffffffffffffffffff16021790555083600482815481106107bb57fe5b906000526020600020906004020160010190805190602001906107df9291906108b6565b5082600482815481106107ee57fe5b906000526020600020906004020160020190805190602001906108129291906108b6565b5060016004828154811061082257fe5b906000526020600020906004020160030160006101000a81548160ff0219169083151502179055506001600081548092919060010191905055503373ffffffffffffffffffffffffffffffffffffffff167f2499a5330ab0979cc612135e7883ebc3cd5c9f7a8508f042540c34723348f632346040518082815260200191505060405180910390a260015491505092915050565b828054600181600116156101000203166002900490600052602060002090601f016020900481019282601f106108f757805160ff1916838001178555610925565b82800160010185558215610925579182015b82811115610924578251825591602001919060010190610909565b5b5090506109329190610936565b5090565b61095891905b8082111561095457600081600090555060010161093c565b5090565b9056fe5468697320746f6b656e2068617320616c7265616479206265656e207075726368617365642e5468652076616c7565206f662074686520707572636861736520646f6573206e6f7420657175616c207468652070726963652e20506c6561736520737065636966792074686520636f72726563742070726963652028302e3520455448294e6f206d6f72652072656d61696e696e6720746f6b656e732e20506c6561736520737065636966792061206e756d626572206c657373207468616e207468652072656d61696e696e6720616d6f756e74a165627a7a72305820106722793812475e77a1a30750f9bbed2a9bb9d402e678e1810e9e690769f41c0029",
  "source": "pragma solidity^0.5.0;\n\ncontract CoShoe {\n\n    // variable initialisation\n    uint256 price;\n    uint256 shoesSold;\n    uint256 count;\n    uint256 totalSupply;\n\n    // creates the representational stuct of shoe (the token)\n    struct Shoe {\n        address payable owner; //address of the owner of the shoe token\n        string name; //name of owner of shoe\n        string image; //image url\n        bool sold;\n    }\n\n    // array to hold the shoes\n    Shoe[] public shoes;\n\n    // event declarations\n    event Purchase(\n      address indexed _buyer,\n      uint256 _value\n    );\n\n    //creates constructor for 100 tokens, count is increased each time in case needs to be verified that count equals 100\n    constructor(uint256 _initialSupply, uint256 _shoesSold) public {\n        // set constructor arguments\n        totalSupply = _initialSupply;\n        price = 5*10**17; // 0.5 ETH converted to wei\n        shoesSold = _shoesSold;\n\n        for (uint i = 1; i <= totalSupply; i++) {\n        shoes.push(Shoe(msg.sender, \"\",\"\",false));\n        }\n    }\n\n\n    //function for purchasing shoe tokens\n    function purchase(string memory _name, string memory _image) public payable returns(uint){\n\n        // validation checks\n        //require that the number of shoe tokens to be purchased are less than the number of shoe tokens minted\n        require(shoesSold < shoes.length, \"No more remaining tokens. Please specify a number less than the remaining amount\");\n        require(msg.value == price, \"The value of the purchase does not equal the price. Please specify the correct price (0.5 ETH)\");\n\n        //sell the next shoe token\n        uint256 i = shoesSold + 1;\n\n        //ensure that the token has not already been purchased\n        require(shoes[i].sold == false,'This token has already been purchased.');\n\n        // update the values of the next shoe\n        // set the owner of the token to the caller of the function\n        shoes[i].owner = msg.sender;\n        // register the token to the owners identifer\n        shoes[i].name = _name;\n        // set the token image to the supplied image url\n        shoes[i].image = _image;\n        // register the token as sold\n        shoes[i].sold = true;\n        // increment the number of tokens that have been sold\n        shoesSold++;\n\n        // emit the purchase event\n        emit Purchase(msg.sender, msg.value);\n\n        // finally return the number of shoes that have been sold\n        return shoesSold;\n    }\n\n    // test functions\n\n    function getNumberofTokens() public view returns(uint counts) {\n        return shoes.length;\n    }\n\n\n    //function to return an array of bools of an array of all the purchases that are true\n    function checkPurchases() external view returns (bool[] memory){\n        bool[] memory checkPurchase;\n        for (uint256 i = 0; i < shoes.length; i++){\n            if (shoes[i].owner == msg.sender){\n                checkPurchase[i] = true;\n            }\n        }\n        return checkPurchase;\n    }\n\n}\n",
  "sourcePath": "C:/Users/Kuziwa Sachikonye/Documents/code projects/FTC-Q2.1-Exam - Copy/contracts/CoShoe.sol",
  "compiler": {
    "name": "solc",
    "version": "0.5.8+commit.23d335f2.Emscripten.clang"
  },
  "schemaVersion": "3.0.11",
  "updatedAt": "2019-08-05T07:40:59.632Z",
  "devdoc": {
    "methods": {}
  },
  "userdoc": {
    "methods": {}
  }
}